{
  "contractName": "CoinToss",
  "abi": [
    {
      "inputs": [],
      "payable": false,
      "stateMutability": "nonpayable",
      "type": "constructor"
    },
    {
      "anonymous": false,
      "inputs": [
        {
          "indexed": false,
          "internalType": "address payable",
          "name": "owner",
          "type": "address"
        },
        {
          "indexed": false,
          "internalType": "uint256",
          "name": "amountwon",
          "type": "uint256"
        }
      ],
      "name": "GameResult",
      "type": "event"
    },
    {
      "anonymous": false,
      "inputs": [
        {
          "indexed": false,
          "internalType": "uint256",
          "name": "gameResult",
          "type": "uint256"
        }
      ],
      "name": "GeneratedNumber",
      "type": "event"
    },
    {
      "anonymous": false,
      "inputs": [
        {
          "indexed": false,
          "internalType": "string",
          "name": "description",
          "type": "string"
        },
        {
          "indexed": false,
          "internalType": "bytes32",
          "name": "queryId",
          "type": "bytes32"
        }
      ],
      "name": "LogNewProvableQuery",
      "type": "event"
    },
    {
      "constant": true,
      "inputs": [
        {
          "internalType": "address",
          "name": "",
          "type": "address"
        }
      ],
      "name": "PlayerInfo",
      "outputs": [
        {
          "internalType": "bool",
          "name": "beforeGame",
          "type": "bool"
        },
        {
          "internalType": "bytes32",
          "name": "queryId",
          "type": "bytes32"
        }
      ],
      "payable": false,
      "stateMutability": "view",
      "type": "function"
    },
    {
      "constant": true,
      "inputs": [],
      "name": "balance",
      "outputs": [
        {
          "internalType": "uint256",
          "name": "",
          "type": "uint256"
        }
      ],
      "payable": false,
      "stateMutability": "view",
      "type": "function"
    },
    {
      "constant": false,
      "inputs": [],
      "name": "close",
      "outputs": [],
      "payable": false,
      "stateMutability": "nonpayable",
      "type": "function"
    },
    {
      "constant": true,
      "inputs": [],
      "name": "owner",
      "outputs": [
        {
          "internalType": "address",
          "name": "",
          "type": "address"
        }
      ],
      "payable": false,
      "stateMutability": "view",
      "type": "function"
    },
    {
      "constant": false,
      "inputs": [],
      "name": "bet",
      "outputs": [
        {
          "internalType": "bytes32",
          "name": "",
          "type": "bytes32"
        }
      ],
      "payable": true,
      "stateMutability": "payable",
      "type": "function"
    },
    {
      "constant": false,
      "inputs": [
        {
          "internalType": "bytes32",
          "name": "_myid",
          "type": "bytes32"
        },
        {
          "internalType": "string",
          "name": "_result",
          "type": "string"
        }
      ],
      "name": "__callback",
      "outputs": [],
      "payable": false,
      "stateMutability": "nonpayable",
      "type": "function"
    },
    {
      "constant": false,
      "inputs": [
        {
          "internalType": "bytes32",
          "name": "_queryId",
          "type": "bytes32"
        },
        {
          "internalType": "string",
          "name": "_result",
          "type": "string"
        },
        {
          "internalType": "bytes",
          "name": "_proof",
          "type": "bytes"
        }
      ],
      "name": "__callback",
      "outputs": [],
      "payable": false,
      "stateMutability": "nonpayable",
      "type": "function"
    },
    {
      "constant": true,
      "inputs": [],
      "name": "getBalance",
      "outputs": [
        {
          "internalType": "uint256",
          "name": "",
          "type": "uint256"
        }
      ],
      "payable": false,
      "stateMutability": "view",
      "type": "function"
    },
    {
      "constant": false,
      "inputs": [],
      "name": "fund",
      "outputs": [
        {
          "internalType": "uint256",
          "name": "",
          "type": "uint256"
        }
      ],
      "payable": true,
      "stateMutability": "payable",
      "type": "function"
    },
    {
      "constant": false,
      "inputs": [],
      "name": "withdrawAll",
      "outputs": [
        {
          "internalType": "uint256",
          "name": "",
          "type": "uint256"
        }
      ],
      "payable": false,
      "stateMutability": "nonpayable",
      "type": "function"
    }
  ],
  "bytecode": "0x60806040523480156200001157600080fd5b50336000806101000a81548173ffffffffffffffffffffffffffffffffffffffff021916908373ffffffffffffffffffffffffffffffffffffffff16021790555062000067603060f81b6200006d60201b60201c565b62000a91565b600073ffffffffffffffffffffffffffffffffffffffff16600260009054906101000a900473ffffffffffffffffffffffffffffffffffffffff1673ffffffffffffffffffffffffffffffffffffffff161480620000fd57506000620000fb600260009054906101000a900473ffffffffffffffffffffffffffffffffffffffff16620003d360201b60201c565b145b156200011757620001156000620003de60201b60201c565b505b600260009054906101000a900473ffffffffffffffffffffffffffffffffffffffff1673ffffffffffffffffffffffffffffffffffffffff166338cc48316040518163ffffffff1660e01b8152600401602060405180830381600087803b1580156200018257600080fd5b505af115801562000197573d6000803e3d6000fd5b505050506040513d6020811015620001ae57600080fd5b810190808051906020019092919050505073ffffffffffffffffffffffffffffffffffffffff16600160009054906101000a900473ffffffffffffffffffffffffffffffffffffffff1673ffffffffffffffffffffffffffffffffffffffff1614620002fd57600260009054906101000a900473ffffffffffffffffffffffffffffffffffffffff1673ffffffffffffffffffffffffffffffffffffffff166338cc48316040518163ffffffff1660e01b8152600401602060405180830381600087803b1580156200027f57600080fd5b505af115801562000294573d6000803e3d6000fd5b505050506040513d6020811015620002ab57600080fd5b8101908080519060200190929190505050600160006101000a81548173ffffffffffffffffffffffffffffffffffffffff021916908373ffffffffffffffffffffffffffffffffffffffff1602179055505b600160009054906101000a900473ffffffffffffffffffffffffffffffffffffffff1673ffffffffffffffffffffffffffffffffffffffff1663688dcfd7826040518263ffffffff1660e01b815260040180827effffffffffffffffffffffffffffffffffffffffffffffffffffffffffffff19167effffffffffffffffffffffffffffffffffffffffffffffffffffffffffffff19168152602001915050600060405180830381600087803b158015620003b757600080fd5b505af1158015620003cc573d6000803e3d6000fd5b5050505050565b6000813b9050919050565b6000620003f0620003f760201b60201c565b9050919050565b6000806200041f731d3b2638a7cc9f2cb3d298a3da7a90b67e5506ed620003d360201b60201c565b1115620004cb57731d3b2638a7cc9f2cb3d298a3da7a90b67e5506ed600260006101000a81548173ffffffffffffffffffffffffffffffffffffffff021916908373ffffffffffffffffffffffffffffffffffffffff160217905550620004c16040518060400160405280600b81526020017f6574685f6d61696e6e6574000000000000000000000000000000000000000000815250620009c660201b60201c565b60019050620009c3565b6000620004f273c03a2615d5efaf5f49f60b7bb6583eaec212fdf1620003d360201b60201c565b11156200059e5773c03a2615d5efaf5f49f60b7bb6583eaec212fdf1600260006101000a81548173ffffffffffffffffffffffffffffffffffffffff021916908373ffffffffffffffffffffffffffffffffffffffff160217905550620005946040518060400160405280600c81526020017f6574685f726f707374656e330000000000000000000000000000000000000000815250620009c660201b60201c565b60019050620009c3565b6000620005c573b7a07bcf2ba2f2703b24c0691b5278999c59ac7e620003d360201b60201c565b1115620006715773b7a07bcf2ba2f2703b24c0691b5278999c59ac7e600260006101000a81548173ffffffffffffffffffffffffffffffffffffffff021916908373ffffffffffffffffffffffffffffffffffffffff160217905550620006676040518060400160405280600981526020017f6574685f6b6f76616e0000000000000000000000000000000000000000000000815250620009c660201b60201c565b60019050620009c3565b60006200069873146500cfd35b22e4a392fe0adc06de1a1368ed48620003d360201b60201c565b1115620007445773146500cfd35b22e4a392fe0adc06de1a1368ed48600260006101000a81548173ffffffffffffffffffffffffffffffffffffffff021916908373ffffffffffffffffffffffffffffffffffffffff1602179055506200073a6040518060400160405280600b81526020017f6574685f72696e6b656279000000000000000000000000000000000000000000815250620009c660201b60201c565b60019050620009c3565b60006200076b73a2998efd205fb9d4b4963afb70778d6354ad3a41620003d360201b60201c565b1115620008175773a2998efd205fb9d4b4963afb70778d6354ad3a41600260006101000a81548173ffffffffffffffffffffffffffffffffffffffff021916908373ffffffffffffffffffffffffffffffffffffffff1602179055506200080d6040518060400160405280600a81526020017f6574685f676f65726c6900000000000000000000000000000000000000000000815250620009c660201b60201c565b60019050620009c3565b60006200083e736f485c8bf6fc43ea212e93bbf8ce046c7f1cb475620003d360201b60201c565b1115620008a457736f485c8bf6fc43ea212e93bbf8ce046c7f1cb475600260006101000a81548173ffffffffffffffffffffffffffffffffffffffff021916908373ffffffffffffffffffffffffffffffffffffffff16021790555060019050620009c3565b6000620008cb7320e12a1f859b3feae5fb2a0a32c18f5a65555bbf620003d360201b60201c565b111562000931577320e12a1f859b3feae5fb2a0a32c18f5a65555bbf600260006101000a81548173ffffffffffffffffffffffffffffffffffffffff021916908373ffffffffffffffffffffffffffffffffffffffff16021790555060019050620009c3565b6000620009587351efaf4c8b3c9afbd5ab9f4bbc82784ab6ef8faa620003d360201b60201c565b1115620009be577351efaf4c8b3c9afbd5ab9f4bbc82784ab6ef8faa600260006101000a81548173ffffffffffffffffffffffffffffffffffffffff021916908373ffffffffffffffffffffffffffffffffffffffff16021790555060019050620009c3565b600090505b90565b8060039080519060200190620009de929190620009e2565b5050565b828054600181600116156101000203166002900490600052602060002090601f016020900481019282601f1062000a2557805160ff191683800117855562000a56565b8280016001018555821562000a56579182015b8281111562000a5557825182559160200191906001019062000a38565b5b50905062000a65919062000a69565b5090565b62000a8e91905b8082111562000a8a57600081600090555060010162000a70565b5090565b90565b6143238062000aa16000396000f3fe6080604052600436106100915760003560e01c80635223f777116100595780635223f77714610331578063853828b6146103a15780638da5cb5b146103cc578063b60d428814610423578063b69ef8a81461044157610091565b806311610c251461009657806312065fe0146100b457806327dc297e146100df57806338bbfa50146101b157806343d726d61461031a575b600080fd5b61009e61046c565b6040518082815260200191505060405180910390f35b3480156100c057600080fd5b506100c961069e565b6040518082815260200191505060405180910390f35b3480156100eb57600080fd5b506101af6004803603604081101561010257600080fd5b81019080803590602001909291908035906020019064010000000081111561012957600080fd5b82018360208201111561013b57600080fd5b8035906020019184600183028401116401000000008311171561015d57600080fd5b91908080601f016020809104026020016040519081016040528093929190818152602001838380828437600081840152601f19601f8201169050808301925050505050505091929192905050506106bd565b005b3480156101bd57600080fd5b50610318600480360360608110156101d457600080fd5b8101908080359060200190929190803590602001906401000000008111156101fb57600080fd5b82018360208201111561020d57600080fd5b8035906020019184600183028401116401000000008311171561022f57600080fd5b91908080601f016020809104026020016040519081016040528093929190818152602001838380828437600081840152601f19601f8201169050808301925050505050505091929192908035906020019064010000000081111561029257600080fd5b8201836020820111156102a457600080fd5b803590602001918460018302840111640100000000831117156102c657600080fd5b91908080601f016020809104026020016040519081016040528093929190818152602001838380828437600081840152601f19601f820116905080830192505050505050509192919290505050610700565b005b34801561032657600080fd5b5061032f610959565b005b34801561033d57600080fd5b506103806004803603602081101561035457600080fd5b81019080803573ffffffffffffffffffffffffffffffffffffffff169060200190929190505050610a39565b60405180831515151581526020018281526020019250505060405180910390f35b3480156103ad57600080fd5b506103b6610a6a565b6040518082815260200191505060405180910390f35b3480156103d857600080fd5b506103e1610b8b565b604051808273ffffffffffffffffffffffffffffffffffffffff1673ffffffffffffffffffffffffffffffffffffffff16815260200191505060405180910390f35b61042b610bb0565b6040518082815260200191505060405180910390f35b34801561044d57600080fd5b50610456610c87565b6040518082815260200191505060405180910390f35b600060011515600860003373ffffffffffffffffffffffffffffffffffffffff1673ffffffffffffffffffffffffffffffffffffffff16815260200190815260200160002060000160009054906101000a900460ff16151514610537576040517f08c379a000000000000000000000000000000000000000000000000000000000815260040180806020018281038252601a8152602001807f596f7520617265207374696c6c20696e207468652067616d652e00000000000081525060200191505060405180910390fd5b600654341115610592576040517f08c379a00000000000000000000000000000000000000000000000000000000081526004018080602001828103825260368152602001806142436036913960400191505060405180910390fd5b6000600860003373ffffffffffffffffffffffffffffffffffffffff1673ffffffffffffffffffffffffffffffffffffffff16815260200190815260200160002060000160006101000a81548160ff02191690831515021790555060006105f7610c8d565b9050610601614109565b60405180604001604052803373ffffffffffffffffffffffffffffffffffffffff168152602001348152509050806007600084815260200190815260200160002060008201518160000160006101000a81548173ffffffffffffffffffffffffffffffffffffffff021916908373ffffffffffffffffffffffffffffffffffffffff16021790555060208201518160010155905050819250505090565b60003073ffffffffffffffffffffffffffffffffffffffff1631905090565b6106fc828260006040519080825280601f01601f1916602001820160405280156106f65781602001600182028038833980820191505090505b50610700565b5050565b610708610e0c565b73ffffffffffffffffffffffffffffffffffffffff163373ffffffffffffffffffffffffffffffffffffffff161461073f57600080fd5b600061074c84848461112c565b60ff1614610759576108f9565b60006002836040516020018082805190602001908083835b602083106107945780518252602082019150602081019050602083039250610771565b6001836020036101000a0380198251168184511680821785525050505050509050019150506040516020818303038152906040528051906020012060001c816107d957fe5b0690506107e4614109565b600760008681526020019081526020016000206040518060400160405290816000820160009054906101000a900473ffffffffffffffffffffffffffffffffffffffff1673ffffffffffffffffffffffffffffffffffffffff1673ffffffffffffffffffffffffffffffffffffffff168152602001600182015481525050905060076000868152602001908152602001600020600080820160006101000a81549073ffffffffffffffffffffffffffffffffffffffff0219169055600182016000905550506108bc816000015182602001518461125c565b7f10c1de1966c08b5560bca13edbe0d305e0456e19ee6cdf80c318dfe8ed4cce4982604051808260ff16815260200191505060405180910390a150505b6001600860003373ffffffffffffffffffffffffffffffffffffffff1673ffffffffffffffffffffffffffffffffffffffff16815260200190815260200160002060000160006101000a81548160ff021916908315150217905550505050565b6000809054906101000a900473ffffffffffffffffffffffffffffffffffffffff1673ffffffffffffffffffffffffffffffffffffffff163373ffffffffffffffffffffffffffffffffffffffff1614610a1b576040517f08c379a00000000000000000000000000000000000000000000000000000000081526004018080602001828103825260198152602001807f6f6e6c792061636365737320666f7220746865206f776e65720000000000000081525060200191505060405180910390fd5b60003390508073ffffffffffffffffffffffffffffffffffffffff16ff5b60086020528060005260406000206000915090508060000160009054906101000a900460ff16908060010154905082565b60008060009054906101000a900473ffffffffffffffffffffffffffffffffffffffff1673ffffffffffffffffffffffffffffffffffffffff163373ffffffffffffffffffffffffffffffffffffffff1614610b2e576040517f08c379a00000000000000000000000000000000000000000000000000000000081526004018080602001828103825260198152602001807f6f6e6c792061636365737320666f7220746865206f776e65720000000000000081525060200191505060405180910390fd5b6000600654905060006006819055503373ffffffffffffffffffffffffffffffffffffffff166108fc829081150290604051600060405180830381858888f19350505050158015610b83573d6000803e3d6000fd5b508091505090565b6000809054906101000a900473ffffffffffffffffffffffffffffffffffffffff1681565b60008060009054906101000a900473ffffffffffffffffffffffffffffffffffffffff1673ffffffffffffffffffffffffffffffffffffffff163373ffffffffffffffffffffffffffffffffffffffff1614610c74576040517f08c379a00000000000000000000000000000000000000000000000000000000081526004018080602001828103825260198152602001807f6f6e6c792061636365737320666f7220746865206f776e65720000000000000081525060200191505060405180910390fd5b3460066000828254019250508190555090565b60065481565b60008060009050600062030d4090506000610caa836001846113b4565b90506000610ced6040518060400160405280600681526020017f52616e646f6d00000000000000000000000000000000000000000000000000008152508461194f565b905080340160065411610d4b576040517f08c379a00000000000000000000000000000000000000000000000000000000081526004018080602001828103825260238152602001806142206023913960400191505060405180910390fd5b8034036006819055507f03f87726502eec329641d0b704cac4f62e20440c8e341563a08a35b50dc0c20f826040518080602001838152602001828103825260368152602001806142b9603691396040019250505060405180910390a16000600860003373ffffffffffffffffffffffffffffffffffffffff1673ffffffffffffffffffffffffffffffffffffffff16815260200190815260200160002060000160006101000a81548160ff0219169083151502179055508194505050505090565b60008073ffffffffffffffffffffffffffffffffffffffff16600260009054906101000a900473ffffffffffffffffffffffffffffffffffffffff1673ffffffffffffffffffffffffffffffffffffffff161480610e9457506000610e92600260009054906101000a900473ffffffffffffffffffffffffffffffffffffffff16611cec565b145b15610ea557610ea36000611cf7565b505b600260009054906101000a900473ffffffffffffffffffffffffffffffffffffffff1673ffffffffffffffffffffffffffffffffffffffff166338cc48316040518163ffffffff1660e01b8152600401602060405180830381600087803b158015610f0f57600080fd5b505af1158015610f23573d6000803e3d6000fd5b505050506040513d6020811015610f3957600080fd5b810190808051906020019092919050505073ffffffffffffffffffffffffffffffffffffffff16600160009054906101000a900473ffffffffffffffffffffffffffffffffffffffff1673ffffffffffffffffffffffffffffffffffffffff161461108457600260009054906101000a900473ffffffffffffffffffffffffffffffffffffffff1673ffffffffffffffffffffffffffffffffffffffff166338cc48316040518163ffffffff1660e01b8152600401602060405180830381600087803b15801561100857600080fd5b505af115801561101c573d6000803e3d6000fd5b505050506040513d602081101561103257600080fd5b8101908080519060200190929190505050600160006101000a81548173ffffffffffffffffffffffffffffffffffffffff021916908373ffffffffffffffffffffffffffffffffffffffff1602179055505b600160009054906101000a900473ffffffffffffffffffffffffffffffffffffffff1673ffffffffffffffffffffffffffffffffffffffff1663c281d19e6040518163ffffffff1660e01b815260040160206040518083038186803b1580156110ec57600080fd5b505afa158015611100573d6000803e3d6000fd5b505050506040513d602081101561111657600080fd5b8101908080519060200190929190505050905090565b60007f4c000000000000000000000000000000000000000000000000000000000000008260008151811061115c57fe5b602001015160f81c60f81b7effffffffffffffffffffffffffffffffffffffffffffffffffffffffffffff19161415806111ef57507f5000000000000000000000000000000000000000000000000000000000000000826001815181106111bf57fe5b602001015160f81c60f81b7effffffffffffffffffffffffffffffffffffffffffffffffffffffffffffff191614155b8061121b5750600160ff168260028151811061120757fe5b602001015160f81c60f81b60f81c60ff1614155b156112295760019050611255565b600061123e838686611239611d08565b611daa565b90508061124f576002915050611255565b60009150505b9392505050565b60008160ff1614156112e957816006600082825401925050819055507f9d0859fd9865bf20a3561dc0f05b1cba79ac43380d10a5ae7bb29e998b67fb9b836000604051808373ffffffffffffffffffffffffffffffffffffffff1673ffffffffffffffffffffffffffffffffffffffff1681526020018281526020019250505060405180910390a16113af565b8273ffffffffffffffffffffffffffffffffffffffff166108fc600284029081150290604051600060405180830381858888f19350505050158015611332573d6000803e3d6000fd5b50816006600082825403925050819055507f9d0859fd9865bf20a3561dc0f05b1cba79ac43380d10a5ae7bb29e998b67fb9b8383604051808373ffffffffffffffffffffffffffffffffffffffff1673ffffffffffffffffffffffffffffffffffffffff1681526020018281526020019250505060405180910390a15b505050565b600080831180156113c6575060208311155b6113cf57600080fd5b600a84029350606060016040519080825280601f01601f19166020018201604052801561140b5781602001600182028038833980820191505090505b5090508360f81b8160008151811061141f57fe5b60200101907effffffffffffffffffffffffffffffffffffffffffffffffffffffffffffff1916908160001a905350606060206040519080825280601f01601f1916602001820160405280156114845781602001600182028038833980820191505090505b509050606060206040519080825280601f01601f1916602001820160405280156114bd5781602001600182028038833980820191505090505b50905060006114ca612455565b905060208352424118600143034018602084015260208252806020830152606060206040519080825280601f01601f19166020018201604052801561151e5781602001600182028038833980820191505090505b509050886020820152606060086040519080825280601f01601f19166020018201604052801561155d5781602001600182028038833980820191505090505b5090506115708260186008846000612775565b50611579614139565b604051806080016040528087815260200188815260200186815260200184815250905060006115de6040518060400160405280600681526020017f72616e646f6d0000000000000000000000000000000000000000000000000000815250838c6127d4565b9050606060086040519080825280601f01601f1916602001820160405280156116165781602001600182028038833980820191505090505b50905060208401517f0100000000000000000000000000000000000000000000000000000000000000810460278301537e01000000000000000000000000000000000000000000000000000000000000810460268301537d010000000000000000000000000000000000000000000000000000000000810460258301537c0100000000000000000000000000000000000000000000000000000000810460248301537b01000000000000000000000000000000000000000000000000000000810460238301537a01000000000000000000000000000000000000000000000000000081046022830153790100000000000000000000000000000000000000000000000000810460218301537801000000000000000000000000000000000000000000000000810460208301535061193c82828560016004811061175557fe5b602002015160028760006004811061176957fe5b60200201516040518082805190602001908083835b602083106117a1578051825260208201915060208101905060208303925061177e565b6001836020036101000a038019825116818451168082178552505050505050905001915050602060405180830381855afa1580156117e3573d6000803e3d6000fd5b5050506040513d60208110156117f857600080fd5b81019080805190602001909291905050508760026004811061181657fe5b60200201516040516020018085805190602001908083835b60208310611851578051825260208201915060208101905060208303925061182e565b6001836020036101000a03801982511681845116808217855250505050505090500184805190602001908083835b602083106118a2578051825260208201915060208101905060208303925061187f565b6001836020036101000a03801982511681845116808217855250505050505090500183815260200182805190602001908083835b602083106118f957805182526020820191506020810190506020830392506118d6565b6001836020036101000a03801982511681845116808217855250505050505090500194505050505060405160208183030381529060405280519060200120612b43565b8199505050505050505050509392505050565b60008073ffffffffffffffffffffffffffffffffffffffff16600260009054906101000a900473ffffffffffffffffffffffffffffffffffffffff1673ffffffffffffffffffffffffffffffffffffffff1614806119d7575060006119d5600260009054906101000a900473ffffffffffffffffffffffffffffffffffffffff16611cec565b145b156119e8576119e66000611cf7565b505b600260009054906101000a900473ffffffffffffffffffffffffffffffffffffffff1673ffffffffffffffffffffffffffffffffffffffff166338cc48316040518163ffffffff1660e01b8152600401602060405180830381600087803b158015611a5257600080fd5b505af1158015611a66573d6000803e3d6000fd5b505050506040513d6020811015611a7c57600080fd5b810190808051906020019092919050505073ffffffffffffffffffffffffffffffffffffffff16600160009054906101000a900473ffffffffffffffffffffffffffffffffffffffff1673ffffffffffffffffffffffffffffffffffffffff1614611bc757600260009054906101000a900473ffffffffffffffffffffffffffffffffffffffff1673ffffffffffffffffffffffffffffffffffffffff166338cc48316040518163ffffffff1660e01b8152600401602060405180830381600087803b158015611b4b57600080fd5b505af1158015611b5f573d6000803e3d6000fd5b505050506040513d6020811015611b7557600080fd5b8101908080519060200190929190505050600160006101000a81548173ffffffffffffffffffffffffffffffffffffffff021916908373ffffffffffffffffffffffffffffffffffffffff1602179055505b600160009054906101000a900473ffffffffffffffffffffffffffffffffffffffff1673ffffffffffffffffffffffffffffffffffffffff16632ef3accc84846040518363ffffffff1660e01b81526004018080602001838152602001828103825284818151815260200191508051906020019080838360005b83811015611c5c578082015181840152602081019050611c41565b50505050905090810190601f168015611c895780820380516001836020036101000a031916815260200191505b509350505050602060405180830381600087803b158015611ca957600080fd5b505af1158015611cbd573d6000803e3d6000fd5b505050506040513d6020811015611cd357600080fd5b8101908080519060200190929190505050905092915050565b6000813b9050919050565b6000611d01612b5f565b9050919050565b606060038054600181600116156101000203166002900480601f016020809104026020016040519081016040528092919081815260200182805460018160011615610100020316600290048015611da05780601f10611d7557610100808354040283529160200191611da0565b820191906000526020600020905b815481529060010190602001808311611d8357829003601f168201915b5050505050905090565b6000806020600287604581518110611dbe57fe5b602001015160f81c60f81b60f81c60ff1601604401019050606060206040519080825280601f01601f191660200182016040528015611e0c5781602001600182028038833980820191505090505b509050611e1e87836020846000612775565b50600284876040516020018083805190602001908083835b60208310611e595780518252602082019150602081019050602083039250611e36565b6001836020036101000a038019825116818451168082178552505050505050905001828152602001925050506040516020818303038152906040526040518082805190602001908083835b60208310611ec75780518252602082019150602081019050602083039250611ea4565b6001836020036101000a038019825116818451168082178552505050505050905001915050602060405180830381855afa158015611f09573d6000803e3d6000fd5b5050506040513d6020811015611f1e57600080fd5b81019080805190602001909291905050506040516020018082815260200191505060405160208183030381529060405280519060200120818051906020012014611f6d5760009250505061244d565b60606002886001604986010181518110611f8357fe5b602001015160f81c60f81b60f81c60ff16016040519080825280601f01601f191660200182016040528015611fc75781602001600182028038833980820191505090505b509050611fdc88604985018351846000612775565b506120a76002826040518082805190602001908083835b602083106120165780518252602082019150602081019050602083039250611ff3565b6001836020036101000a038019825116818451168082178552505050505050905001915050602060405180830381855afa158015612058573d6000803e3d6000fd5b5050506040513d602081101561206d57600080fd5b8101908080519060200190929190505050878a600860208801018151811061209157fe5b602001015160f81c60f81b60f81c60ff166130b6565b6120b7576000935050505061244d565b606060296040519080825280601f01601f1916602001820160405280156120ed5781602001600182028038833980820191505090505b50905061210289602086016029846000612775565b506060604080519080825280601f01601f1916602001820160405280156121385781602001600182028038833980820191505090505b509050600060418451602960208901010101905061215e8b604083036040856000612775565b5060006002836040518082805190602001908083835b602083106121975780518252602082019150602081019050602083039250612174565b6001836020036101000a038019825116818451168082178552505050505050905001915050602060405180830381855afa1580156121d9573d6000803e3d6000fd5b5050506040513d60208110156121ee57600080fd5b8101908080519060200190929190505050905083816040516020018083805190602001908083835b602083106122395780518252602082019150602081019050602083039250612216565b6001836020036101000a0380198251168184511680821785525050505050509050018281526020019250505060405160208183030381529060405280519060200120600460008d81526020019081526020016000205414156122b157600460008c8152602001908152602001600020600090556122c1565b600097505050505050505061244d565b606060496040519080825280601f01601f1916602001820160405280156122f75781602001600182028038833980820191505090505b5090506123098d896049846000612775565b506123b26002826040518082805190602001908083835b602083106123435780518252602082019150602081019050602083039250612320565b6001836020036101000a038019825116818451168082178552505050505050905001915050602060405180830381855afa158015612385573d6000803e3d6000fd5b5050506040513d602081101561239a57600080fd5b81019080805190602001909291905050508786613166565b6123c75760009850505050505050505061244d565b6005600083815260200190815260200160002060009054906101000a900460ff16612421576123f68d84613324565b6005600084815260200190815260200160002060006101000a81548160ff0219169083151502179055505b6005600083815260200190815260200160002060009054906101000a900460ff16985050505050505050505b949350505050565b60008073ffffffffffffffffffffffffffffffffffffffff16600260009054906101000a900473ffffffffffffffffffffffffffffffffffffffff1673ffffffffffffffffffffffffffffffffffffffff1614806124dd575060006124db600260009054906101000a900473ffffffffffffffffffffffffffffffffffffffff16611cec565b145b156124ee576124ec6000611cf7565b505b600260009054906101000a900473ffffffffffffffffffffffffffffffffffffffff1673ffffffffffffffffffffffffffffffffffffffff166338cc48316040518163ffffffff1660e01b8152600401602060405180830381600087803b15801561255857600080fd5b505af115801561256c573d6000803e3d6000fd5b505050506040513d602081101561258257600080fd5b810190808051906020019092919050505073ffffffffffffffffffffffffffffffffffffffff16600160009054906101000a900473ffffffffffffffffffffffffffffffffffffffff1673ffffffffffffffffffffffffffffffffffffffff16146126cd57600260009054906101000a900473ffffffffffffffffffffffffffffffffffffffff1673ffffffffffffffffffffffffffffffffffffffff166338cc48316040518163ffffffff1660e01b8152600401602060405180830381600087803b15801561265157600080fd5b505af1158015612665573d6000803e3d6000fd5b505050506040513d602081101561267b57600080fd5b8101908080519060200190929190505050600160006101000a81548173ffffffffffffffffffffffffffffffffffffffff021916908373ffffffffffffffffffffffffffffffffffffffff1602179055505b600160009054906101000a900473ffffffffffffffffffffffffffffffffffffffff1673ffffffffffffffffffffffffffffffffffffffff1663abaa5f3e6040518163ffffffff1660e01b815260040160206040518083038186803b15801561273557600080fd5b505afa158015612749573d6000803e3d6000fd5b505050506040513d602081101561275f57600080fd5b8101908080519060200190929190505050905090565b606060008285019050808451101561278c57600080fd5b600086602001905060008460200190505b8688602001018210156127c5578189015180828801525060208201915060208101905061279d565b85935050505095945050505050565b60008073ffffffffffffffffffffffffffffffffffffffff16600260009054906101000a900473ffffffffffffffffffffffffffffffffffffffff1673ffffffffffffffffffffffffffffffffffffffff16148061285c5750600061285a600260009054906101000a900473ffffffffffffffffffffffffffffffffffffffff16611cec565b145b1561286d5761286b6000611cf7565b505b600260009054906101000a900473ffffffffffffffffffffffffffffffffffffffff1673ffffffffffffffffffffffffffffffffffffffff166338cc48316040518163ffffffff1660e01b8152600401602060405180830381600087803b1580156128d757600080fd5b505af11580156128eb573d6000803e3d6000fd5b505050506040513d602081101561290157600080fd5b810190808051906020019092919050505073ffffffffffffffffffffffffffffffffffffffff16600160009054906101000a900473ffffffffffffffffffffffffffffffffffffffff1673ffffffffffffffffffffffffffffffffffffffff1614612a4c57600260009054906101000a900473ffffffffffffffffffffffffffffffffffffffff1673ffffffffffffffffffffffffffffffffffffffff166338cc48316040518163ffffffff1660e01b8152600401602060405180830381600087803b1580156129d057600080fd5b505af11580156129e4573d6000803e3d6000fd5b505050506040513d60208110156129fa57600080fd5b8101908080519060200190929190505050600160006101000a81548173ffffffffffffffffffffffffffffffffffffffff021916908373ffffffffffffffffffffffffffffffffffffffff1602179055505b60606004604051908082528060200260200182016040528015612a8357816020015b6060815260200190600190039081612a6e5790505b50905083600060048110612a9357fe5b602002015181600081518110612aa557fe5b602002602001018190525083600160048110612abd57fe5b602002015181600181518110612acf57fe5b602002602001018190525083600260048110612ae757fe5b602002015181600281518110612af957fe5b602002602001018190525083600360048110612b1157fe5b602002015181600381518110612b2357fe5b6020026020010181905250612b3985828561373c565b9150509392505050565b8060046000848152602001908152602001600020819055505050565b600080612b7f731d3b2638a7cc9f2cb3d298a3da7a90b67e5506ed611cec565b1115612c2157731d3b2638a7cc9f2cb3d298a3da7a90b67e5506ed600260006101000a81548173ffffffffffffffffffffffffffffffffffffffff021916908373ffffffffffffffffffffffffffffffffffffffff160217905550612c186040518060400160405280600b81526020017f6574685f6d61696e6e6574000000000000000000000000000000000000000000815250613ca2565b600190506130b3565b6000612c4073c03a2615d5efaf5f49f60b7bb6583eaec212fdf1611cec565b1115612ce25773c03a2615d5efaf5f49f60b7bb6583eaec212fdf1600260006101000a81548173ffffffffffffffffffffffffffffffffffffffff021916908373ffffffffffffffffffffffffffffffffffffffff160217905550612cd96040518060400160405280600c81526020017f6574685f726f707374656e330000000000000000000000000000000000000000815250613ca2565b600190506130b3565b6000612d0173b7a07bcf2ba2f2703b24c0691b5278999c59ac7e611cec565b1115612da35773b7a07bcf2ba2f2703b24c0691b5278999c59ac7e600260006101000a81548173ffffffffffffffffffffffffffffffffffffffff021916908373ffffffffffffffffffffffffffffffffffffffff160217905550612d9a6040518060400160405280600981526020017f6574685f6b6f76616e0000000000000000000000000000000000000000000000815250613ca2565b600190506130b3565b6000612dc273146500cfd35b22e4a392fe0adc06de1a1368ed48611cec565b1115612e645773146500cfd35b22e4a392fe0adc06de1a1368ed48600260006101000a81548173ffffffffffffffffffffffffffffffffffffffff021916908373ffffffffffffffffffffffffffffffffffffffff160217905550612e5b6040518060400160405280600b81526020017f6574685f72696e6b656279000000000000000000000000000000000000000000815250613ca2565b600190506130b3565b6000612e8373a2998efd205fb9d4b4963afb70778d6354ad3a41611cec565b1115612f255773a2998efd205fb9d4b4963afb70778d6354ad3a41600260006101000a81548173ffffffffffffffffffffffffffffffffffffffff021916908373ffffffffffffffffffffffffffffffffffffffff160217905550612f1c6040518060400160405280600a81526020017f6574685f676f65726c6900000000000000000000000000000000000000000000815250613ca2565b600190506130b3565b6000612f44736f485c8bf6fc43ea212e93bbf8ce046c7f1cb475611cec565b1115612fa857736f485c8bf6fc43ea212e93bbf8ce046c7f1cb475600260006101000a81548173ffffffffffffffffffffffffffffffffffffffff021916908373ffffffffffffffffffffffffffffffffffffffff160217905550600190506130b3565b6000612fc77320e12a1f859b3feae5fb2a0a32c18f5a65555bbf611cec565b111561302b577320e12a1f859b3feae5fb2a0a32c18f5a65555bbf600260006101000a81548173ffffffffffffffffffffffffffffffffffffffff021916908373ffffffffffffffffffffffffffffffffffffffff160217905550600190506130b3565b600061304a7351efaf4c8b3c9afbd5ab9f4bbc82784ab6ef8faa611cec565b11156130ae577351efaf4c8b3c9afbd5ab9f4bbc82784ab6ef8faa600260006101000a81548173ffffffffffffffffffffffffffffffffffffffff021916908373ffffffffffffffffffffffffffffffffffffffff160217905550600190506130b3565b600090505b90565b60008060019050828451146130ca57600080fd5b60008090505b8381101561315a578481815181106130e457fe5b602001015160f81c60f81b7effffffffffffffffffffffffffffffffffffffffffffffffffffffffffffff191686826020811061311d57fe5b1a60f81b7effffffffffffffffffffffffffffffffffffffffffffffffffffffffffffff19161461314d57600091505b80806001019150506130d0565b50809150509392505050565b6000806000806000606060206040519080825280601f01601f1916602001820160405280156131a45781602001600182028038833980820191505090505b50905060006020896003815181106131b857fe5b602001015160f81c60f81b60f81c60ff160360040190506131de89826020856000612775565b9150606060206040519080825280601f01601f1916602001820160405280156132165781602001600182028038833980820191505090505b5090506022820191506132528a60208c600186038151811061323457fe5b602001015160f81c60f81b60f81c60ff160384016020846000612775565b9050602083015194506020810151935061326f8b601b8787613cbc565b80975081985050508573ffffffffffffffffffffffffffffffffffffffff16898051906020012060001c73ffffffffffffffffffffffffffffffffffffffff1614156132c557600197505050505050505061331d565b6132d28b601c8787613cbc565b80975081985050508573ffffffffffffffffffffffffffffffffffffffff16898051906020012060001c73ffffffffffffffffffffffffffffffffffffffff16149750505050505050505b9392505050565b6000806060600285600186018151811061333a57fe5b602001015160f81c60f81b60f81c60ff16016040519080825280601f01601f19166020018201604052801561337e5781602001600182028038833980820191505090505b50905061339085858351846000612775565b506060604080519080825280601f01601f1916602001820160405280156133c65781602001600182028038833980820191505090505b5090506133d98660046040846000612775565b50606060626040519080825280601f01601f1916602001820160405280156134105781602001600182028038833980820191505090505b509050600160f81b8160008151811061342557fe5b60200101907effffffffffffffffffffffffffffffffffffffffffffffffffffffffffffff1916908160001a90535061346687604188036041846001612775565b5060606040518060400160405280602081526020017ffd94fa71bc0ba10d39d464d0d8f465efeef0a2764e3887fcc9df41ded20f505c81525090506134b18160006020856042612775565b5061355a6002836040518082805190602001908083835b602083106134eb57805182526020820191506020810190506020830392506134c8565b6001836020036101000a038019825116818451168082178552505050505050905001915050602060405180830381855afa15801561352d573d6000803e3d6000fd5b5050506040513d602081101561354257600080fd5b81019080805190602001909291905050508585613166565b94508461356f57600095505050505050613736565b6060604051806060016040528060408152602001614279604091399050606060426040519080825280601f01601f1916602001820160405280156135c25781602001600182028038833980820191505090505b50905060fe60f81b816000815181106135d757fe5b60200101907effffffffffffffffffffffffffffffffffffffffffffffffffffffffffffff1916908160001a9053506136168a60036041846001612775565b50606060028b60458151811061362857fe5b602001015160f81c60f81b60f81c60ff16016040519080825280601f01601f19166020018201604052801561366c5781602001600182028038833980820191505090505b50905061367f8b60448351846000612775565b506137286002836040518082805190602001908083835b602083106136b95780518252602082019150602081019050602083039250613696565b6001836020036101000a038019825116818451168082178552505050505050905001915050602060405180830381855afa1580156136fb573d6000803e3d6000fd5b5050506040513d602081101561371057600080fd5b81019080805190602001909291905050508285613166565b975087985050505050505050505b92915050565b60008073ffffffffffffffffffffffffffffffffffffffff16600260009054906101000a900473ffffffffffffffffffffffffffffffffffffffff1673ffffffffffffffffffffffffffffffffffffffff1614806137c4575060006137c2600260009054906101000a900473ffffffffffffffffffffffffffffffffffffffff16611cec565b145b156137d5576137d36000611cf7565b505b600260009054906101000a900473ffffffffffffffffffffffffffffffffffffffff1673ffffffffffffffffffffffffffffffffffffffff166338cc48316040518163ffffffff1660e01b8152600401602060405180830381600087803b15801561383f57600080fd5b505af1158015613853573d6000803e3d6000fd5b505050506040513d602081101561386957600080fd5b810190808051906020019092919050505073ffffffffffffffffffffffffffffffffffffffff16600160009054906101000a900473ffffffffffffffffffffffffffffffffffffffff1673ffffffffffffffffffffffffffffffffffffffff16146139b457600260009054906101000a900473ffffffffffffffffffffffffffffffffffffffff1673ffffffffffffffffffffffffffffffffffffffff166338cc48316040518163ffffffff1660e01b8152600401602060405180830381600087803b15801561393857600080fd5b505af115801561394c573d6000803e3d6000fd5b505050506040513d602081101561396257600080fd5b8101908080519060200190929190505050600160006101000a81548173ffffffffffffffffffffffffffffffffffffffff021916908373ffffffffffffffffffffffffffffffffffffffff1602179055505b6000600160009054906101000a900473ffffffffffffffffffffffffffffffffffffffff1673ffffffffffffffffffffffffffffffffffffffff16632ef3accc86856040518363ffffffff1660e01b81526004018080602001838152602001828103825284818151815260200191508051906020019080838360005b83811015613a4b578082015181840152602081019050613a30565b50505050905090810190601f168015613a785780820380516001836020036101000a031916815260200191505b509350505050602060405180830381600087803b158015613a9857600080fd5b505af1158015613aac573d6000803e3d6000fd5b505050506040513d6020811015613ac257600080fd5b81019080805190602001909291905050509050823a02670de0b6b3a764000001811115613af5576000801b915050613c9b565b6060613b0085613d00565b9050600160009054906101000a900473ffffffffffffffffffffffffffffffffffffffff1673ffffffffffffffffffffffffffffffffffffffff1663c55c1cb68360008985896040518663ffffffff1660e01b8152600401808581526020018060200180602001848152602001838103835286818151815260200191508051906020019080838360005b83811015613ba5578082015181840152602081019050613b8a565b50505050905090810190601f168015613bd25780820380516001836020036101000a031916815260200191505b50838103825285818151815260200191508051906020019080838360005b83811015613c0b578082015181840152602081019050613bf0565b50505050905090810190601f168015613c385780820380516001836020036101000a031916815260200191505b5096505050505050506020604051808303818588803b158015613c5a57600080fd5b505af1158015613c6e573d6000803e3d6000fd5b50505050506040513d6020811015613c8557600080fd5b8101908080519060200190929190505050925050505b9392505050565b8060039080519060200190613cb8929190614160565b5050565b60008060008060405188815287602082015286604082015285606082015260208160808360006001610bb8f192508051915050818193509350505094509492505050565b6060613d0a613d80565b613d126141e0565b613d1e81610400613d8c565b613d2781613dd6565b60008090505b8351811015613d6957613d5c848281518110613d4557fe5b602002602001015183613de490919063ffffffff16565b8080600101915050613d2d565b50613d7381613e09565b8060000151915050919050565b60405180590338823950565b6000819050600060208281613d9d57fe5b0614613db65760208181613dad57fe5b06602003810190505b808360200181815250506040518084526000815281810160405250505050565b613de1816004613e17565b50565b613df18260028351613e38565b613e048183613f7890919063ffffffff16565b505050565b613e14816007613e17565b50565b613e34601f60058360ff16901b178361402390919063ffffffff16565b5050565b60178111613e6457613e5f8160058460ff16901b60ff16178461402390919063ffffffff16565b613f73565b60ff8111613ea557613e89601860058460ff16901b178461402390919063ffffffff16565b613e9f816001856140639092919063ffffffff16565b50613f72565b61ffff8111613ee757613ecb601960058460ff16901b178461402390919063ffffffff16565b613ee1816002856140639092919063ffffffff16565b50613f71565b63ffffffff8111613f2b57613f0f601a60058460ff16901b178461402390919063ffffffff16565b613f25816004856140639092919063ffffffff16565b50613f70565b67ffffffffffffffff8111613f6f57613f57601b60058460ff16901b178461402390919063ffffffff16565b613f6d816008856140639092919063ffffffff16565b505b5b5b5b5b505050565b613f806141e0565b82602001518360000151518351011115613fb057613faf836002613fa9866020015186516140ca565b026140e6565b5b60008060008451905085518051602081830101945086518101825260208701935050505b60208110613ff75781518352602083019250602082019150602081039050613fd4565b60006001826020036101000a039050801983511681855116818117865250508694505050505092915050565b81602001516001836000015151011115614049576140488260028460200151026140e6565b5b815180516020818301018381536001820183525050505050565b61406b6141e0565b836020015184600001515183011115614099576140988460026140928760200151866140ca565b026140e6565b5b60006001836101000a0390508451805184818301018684198251161781528582018352505050849150509392505050565b6000818311156140dc578290506140e0565b8190505b92915050565b6060826000015190506140f98383613d8c565b6141038382613f78565b50505050565b6040518060400160405280600073ffffffffffffffffffffffffffffffffffffffff168152602001600081525090565b60405180608001604052806004905b60608152602001906001900390816141485790505090565b828054600181600116156101000203166002900490600052602060002090601f016020900481019282601f106141a157805160ff19168380011785556141cf565b828001600101855582156141cf579182015b828111156141ce5782518255916020019190600101906141b3565b5b5090506141dc91906141fa565b5090565b604051806040016040528060608152602001600081525090565b61421c91905b80821115614218576000816000905550600101614200565b5090565b9056fe536f72727920636f6e747261637420686173206e6f7420656e6f756768206d6f6e657953656e6465722063616e74206578636565642063757272656e742062616c616e636520616e64206e65656420706c616365206265742e7fb956469c5c9b89840d55b43537e66a98dd4811ea0a27224272c2e5622911e8537a2f8e86a46baec82864e98dd01e9ccc2f8bc5dfc9cbe5a91a290498dd96e450726f7661626c65207175657279207761732073656e742c207374616e64696e6720627920666f722074686520616e737765722e2e2ea265627a7a72315820edc4a6a7053ed4e5e36b4fa3a3884777e48824de7c7dff2dd3802a185ba3f0e264736f6c634300050c0032",
  "source": "pragma solidity 0.5.12;\n\nimport \"./Ownable.sol\";\nimport \"./Destroyable.sol\";\nimport \"./provableAPI.sol\";\n// import \"../SafeMath.sol\"\n// import \"../SignedSafeMath.sol\"\ncontract CoinToss is Ownable, usingProvable, Destroyable {\n\n  // using SafeMath for uint256;\n  // using SignedSafeMath for int256;\n\n  modifier costs(uint cost){\n    require(msg.value >= 0.1 ether,\"Not enough ETH sent!\");\n        _;\n    }\n\n  struct Game {\n    address payable sender;\n    uint256 amount;\n  }\n  struct Players{\n    bool beforeGame;\n    bytes32 queryId;\n    // uint256 userBalance;\n  }\n\n  uint256 public balance;\n  uint256 constant MAX_INT_FROM_BYTE = 256;\n  uint256 constant NUM_RANDOM_BYTES_REQUESTED = 1;\n\n  mapping(bytes32 => Game) private gameMapping;\n  mapping(address => Players) public PlayerInfo;\n\n\n  event GameResult(address payable owner, uint256 amountwon);\n  event GeneratedNumber(uint256 gameResult);\n  event LogNewProvableQuery(string description, bytes32 queryId);\n\n  constructor() public{\n    provable_setProof(proofType_Ledger);\n    }\n\n  function bet() public payable returns (bytes32){\n    require(PlayerInfo[msg.sender].beforeGame == true, \"You are still in the game.\");\n    require(msg.value <= balance, \"Sender cant exceed current balance and need place bet.\");\n    PlayerInfo[msg.sender].beforeGame = false;\n    bytes32 queryId = oracleRandom();  //testRandom();\n    Game memory newGame = Game(msg.sender, msg.value);\n    gameMapping[queryId] = newGame;\n\n    return queryId;\n  }\n  function oracleRandom() private returns (bytes32){\n    uint256 QUERY_EXECUTION_DELAY = 0;\n    uint256 GAS_FOR_CALLBACK = 200000;\n    // bytes32 queryId = testRandom();\n      bytes32 queryId = provable_newRandomDSQuery(\n          QUERY_EXECUTION_DELAY,\n          NUM_RANDOM_BYTES_REQUESTED,\n          GAS_FOR_CALLBACK\n\n    );\n    uint256 provablePrice = provable_getPrice(\"Random\", GAS_FOR_CALLBACK);\n    require(balance > msg.value + provablePrice,\"Sorry contract has not enough money\");\n    balance = msg.value - provablePrice;\n    emit LogNewProvableQuery(\"Provable query was sent, standing by for the answer...\", queryId);\n    PlayerInfo[msg.sender].beforeGame = false;\n    return queryId;\n  }\n  function __callback(bytes32 _queryId,string memory _result,bytes memory _proof) public {\n    require(msg.sender == provable_cbAddress());\n    if (provable_randomDS_proofVerify__returnCode(\n                _queryId,\n                _result,\n                _proof\n            ) != 0\n        ) {\n        } else {\n\n    uint8 gameResult = uint8(uint256(keccak256(abi.encodePacked(_result))) % 2);\n    Game memory existingGame = gameMapping[_queryId];\n    delete( gameMapping[_queryId]);\n    processResult(existingGame.sender, existingGame.amount, gameResult);\n    emit GeneratedNumber(gameResult);\n    }\n    PlayerInfo[msg.sender].beforeGame = true;\n  }\n  function processResult(address payable player, uint256 amount, uint8 result) private {\n    if (result == 0){\n      balance += amount;\n      emit GameResult(player, 0);\n    } else {\n      player.transfer(amount*2);\n      balance -= amount;\n      emit GameResult (player, amount);\n    }\n  }\n  function getBalance() public view returns (uint256){\n    return address(this).balance;\n  }\n  function fund() public payable onlyOwner returns (uint256){\n    balance += msg.value;\n  }\n  function withdrawAll() public onlyOwner returns (uint256){\n    uint toTransfer = balance;\n    balance = 0;\n    msg.sender.transfer(toTransfer);\n    return toTransfer;\n  }\n  // function testRandom() public returns (bytes32){\n  //   bytes32 queryId = bytes32(keccak256(abi.encodePacked(msg.sender)));\n  //   __callback(queryId, \"1\", bytes(\"test\"));\n  //   emit LogNewProvableQuery(\"Provable query was sent, standing by for the answer...\", queryId);\n  //   return queryId;\n  // }\n}\n",
  "sourcePath": "/home/bipp/CoinToss/CoinTossProject/contracts/CoinToss.sol",
  "compiler": {
    "name": "solc",
    "version": "0.5.12+commit.7709ece9.Emscripten.clang"
  },
  "schemaVersion": "3.0.19",
  "updatedAt": "2020-11-02T19:23:06.931Z",
  "networkType": "ethereum",
  "devdoc": {
    "methods": {
      "__callback(bytes32,string)": {
        "details": "The following `__callback` functions are just placeholders ideally     meant to be defined in child contract when proofs are used.     The function bodies simply silence compiler warnings."
      }
    }
  },
  "userdoc": {
    "methods": {}
  }
}